{
  "_format": "hh-sol-artifact-1",
  "contractName": "XSumo",
  "sourceName": "contracts/XSumo.sol",
  "abi": [
    {
      "anonymous": false,
      "inputs": [
        {
          "indexed": false,
          "internalType": "address",
          "name": "previousAdmin",
          "type": "address"
        },
        {
          "indexed": false,
          "internalType": "address",
          "name": "newAdmin",
          "type": "address"
        }
      ],
      "name": "AdminChanged",
      "type": "event"
    },
    {
      "anonymous": false,
      "inputs": [
        {
          "indexed": true,
          "internalType": "address",
          "name": "owner",
          "type": "address"
        },
        {
          "indexed": true,
          "internalType": "address",
          "name": "approved",
          "type": "address"
        },
        {
          "indexed": true,
          "internalType": "uint256",
          "name": "tokenId",
          "type": "uint256"
        }
      ],
      "name": "Approval",
      "type": "event"
    },
    {
      "anonymous": false,
      "inputs": [
        {
          "indexed": true,
          "internalType": "address",
          "name": "owner",
          "type": "address"
        },
        {
          "indexed": true,
          "internalType": "address",
          "name": "operator",
          "type": "address"
        },
        {
          "indexed": false,
          "internalType": "bool",
          "name": "approved",
          "type": "bool"
        }
      ],
      "name": "ApprovalForAll",
      "type": "event"
    },
    {
      "anonymous": false,
      "inputs": [
        {
          "indexed": true,
          "internalType": "address",
          "name": "beacon",
          "type": "address"
        }
      ],
      "name": "BeaconUpgraded",
      "type": "event"
    },
    {
      "anonymous": false,
      "inputs": [
        {
          "indexed": false,
          "internalType": "uint8",
          "name": "version",
          "type": "uint8"
        }
      ],
      "name": "Initialized",
      "type": "event"
    },
    {
      "anonymous": false,
      "inputs": [
        {
          "indexed": true,
          "internalType": "address",
          "name": "previousOwner",
          "type": "address"
        },
        {
          "indexed": true,
          "internalType": "address",
          "name": "newOwner",
          "type": "address"
        }
      ],
      "name": "OwnershipTransferred",
      "type": "event"
    },
    {
      "anonymous": false,
      "inputs": [
        {
          "indexed": false,
          "internalType": "address",
          "name": "account",
          "type": "address"
        }
      ],
      "name": "Paused",
      "type": "event"
    },
    {
      "anonymous": false,
      "inputs": [
        {
          "indexed": true,
          "internalType": "address",
          "name": "from",
          "type": "address"
        },
        {
          "indexed": true,
          "internalType": "address",
          "name": "to",
          "type": "address"
        },
        {
          "indexed": true,
          "internalType": "uint256",
          "name": "tokenId",
          "type": "uint256"
        }
      ],
      "name": "Transfer",
      "type": "event"
    },
    {
      "anonymous": false,
      "inputs": [
        {
          "indexed": false,
          "internalType": "address",
          "name": "account",
          "type": "address"
        }
      ],
      "name": "Unpaused",
      "type": "event"
    },
    {
      "anonymous": false,
      "inputs": [
        {
          "indexed": true,
          "internalType": "address",
          "name": "implementation",
          "type": "address"
        }
      ],
      "name": "Upgraded",
      "type": "event"
    },
    {
      "inputs": [
        {
          "internalType": "address[100]",
          "name": "_users",
          "type": "address[100]"
        }
      ],
      "name": "add100PresaleUsers",
      "outputs": [],
      "stateMutability": "nonpayable",
      "type": "function"
    },
    {
      "inputs": [
        {
          "internalType": "address",
          "name": "_user",
          "type": "address"
        }
      ],
      "name": "addPresaleUser",
      "outputs": [],
      "stateMutability": "nonpayable",
      "type": "function"
    },
    {
      "inputs": [
        {
          "internalType": "address",
          "name": "",
          "type": "address"
        }
      ],
      "name": "airdropList",
      "outputs": [
        {
          "internalType": "bool",
          "name": "",
          "type": "bool"
        }
      ],
      "stateMutability": "view",
      "type": "function"
    },
    {
      "inputs": [
        {
          "internalType": "address",
          "name": "to",
          "type": "address"
        },
        {
          "internalType": "uint256",
          "name": "tokenId",
          "type": "uint256"
        }
      ],
      "name": "approve",
      "outputs": [],
      "stateMutability": "nonpayable",
      "type": "function"
    },
    {
      "inputs": [
        {
          "internalType": "address",
          "name": "owner",
          "type": "address"
        }
      ],
      "name": "balanceOf",
      "outputs": [
        {
          "internalType": "uint256",
          "name": "",
          "type": "uint256"
        }
      ],
      "stateMutability": "view",
      "type": "function"
    },
    {
      "inputs": [
        {
          "internalType": "uint256",
          "name": "tokenId",
          "type": "uint256"
        }
      ],
      "name": "burn",
      "outputs": [],
      "stateMutability": "nonpayable",
      "type": "function"
    },
    {
      "inputs": [],
      "name": "cost",
      "outputs": [
        {
          "internalType": "uint256",
          "name": "",
          "type": "uint256"
        }
      ],
      "stateMutability": "view",
      "type": "function"
    },
    {
      "inputs": [],
      "name": "creatorAddress",
      "outputs": [
        {
          "internalType": "address",
          "name": "",
          "type": "address"
        }
      ],
      "stateMutability": "view",
      "type": "function"
    },
    {
      "inputs": [],
      "name": "creatorName",
      "outputs": [
        {
          "internalType": "string",
          "name": "",
          "type": "string"
        }
      ],
      "stateMutability": "view",
      "type": "function"
    },
    {
      "inputs": [
        {
          "internalType": "uint256",
          "name": "",
          "type": "uint256"
        }
      ],
      "name": "firstFuseAddress",
      "outputs": [
        {
          "internalType": "address",
          "name": "",
          "type": "address"
        }
      ],
      "stateMutability": "view",
      "type": "function"
    },
    {
      "inputs": [
        {
          "internalType": "uint256",
          "name": "_burnTokenId",
          "type": "uint256"
        },
        {
          "internalType": "string",
          "name": "uri",
          "type": "string"
        }
      ],
      "name": "fuse",
      "outputs": [],
      "stateMutability": "nonpayable",
      "type": "function"
    },
    {
      "inputs": [
        {
          "internalType": "uint256",
          "name": "_burnTokenId",
          "type": "uint256"
        },
        {
          "internalType": "string",
          "name": "uri",
          "type": "string"
        }
      ],
      "name": "fuseGiga",
      "outputs": [],
      "stateMutability": "nonpayable",
      "type": "function"
    },
    {
      "inputs": [
        {
          "internalType": "uint256",
          "name": "",
          "type": "uint256"
        }
      ],
      "name": "fused",
      "outputs": [
        {
          "internalType": "bool",
          "name": "",
          "type": "bool"
        }
      ],
      "stateMutability": "view",
      "type": "function"
    },
    {
      "inputs": [
        {
          "internalType": "uint256",
          "name": "tokenId",
          "type": "uint256"
        }
      ],
      "name": "getApproved",
      "outputs": [
        {
          "internalType": "address",
          "name": "",
          "type": "address"
        }
      ],
      "stateMutability": "view",
      "type": "function"
    },
    {
      "inputs": [],
      "name": "getCreatorName",
      "outputs": [
        {
          "internalType": "string",
          "name": "name",
          "type": "string"
        }
      ],
      "stateMutability": "view",
      "type": "function"
    },
    {
      "inputs": [
        {
          "internalType": "uint256",
          "name": "tokenId",
          "type": "uint256"
        }
      ],
      "name": "getFirstMinterInfo",
      "outputs": [
        {
          "internalType": "address",
          "name": "firstMinter",
          "type": "address"
        }
      ],
      "stateMutability": "view",
      "type": "function"
    },
    {
      "inputs": [],
      "name": "getGigaSales",
      "outputs": [
        {
          "internalType": "uint256",
          "name": "name",
          "type": "uint256"
        }
      ],
      "stateMutability": "view",
      "type": "function"
    },
    {
      "inputs": [],
      "name": "getGigaSerumURI",
      "outputs": [
        {
          "internalType": "string",
          "name": "name",
          "type": "string"
        }
      ],
      "stateMutability": "view",
      "type": "function"
    },
    {
      "inputs": [],
      "name": "getNormalSerumURI",
      "outputs": [
        {
          "internalType": "string",
          "name": "name",
          "type": "string"
        }
      ],
      "stateMutability": "view",
      "type": "function"
    },
    {
      "inputs": [
        {
          "internalType": "address",
          "name": "_preSaleAddress",
          "type": "address"
        }
      ],
      "name": "getPreSalesWallet",
      "outputs": [
        {
          "internalType": "bool",
          "name": "name",
          "type": "bool"
        }
      ],
      "stateMutability": "view",
      "type": "function"
    },
    {
      "inputs": [
        {
          "internalType": "uint256",
          "name": "tokenId",
          "type": "uint256"
        }
      ],
      "name": "getTokenFuseInfo",
      "outputs": [
        {
          "internalType": "bool",
          "name": "name",
          "type": "bool"
        }
      ],
      "stateMutability": "view",
      "type": "function"
    },
    {
      "inputs": [],
      "name": "gigaCost",
      "outputs": [
        {
          "internalType": "uint256",
          "name": "",
          "type": "uint256"
        }
      ],
      "stateMutability": "view",
      "type": "function"
    },
    {
      "inputs": [],
      "name": "gigaSales",
      "outputs": [
        {
          "internalType": "uint256",
          "name": "",
          "type": "uint256"
        }
      ],
      "stateMutability": "view",
      "type": "function"
    },
    {
      "inputs": [],
      "name": "gigaSerumURI",
      "outputs": [
        {
          "internalType": "string",
          "name": "",
          "type": "string"
        }
      ],
      "stateMutability": "view",
      "type": "function"
    },
    {
      "inputs": [
        {
          "internalType": "uint256",
          "name": "_x",
          "type": "uint256"
        }
      ],
      "name": "initialize",
      "outputs": [],
      "stateMutability": "nonpayable",
      "type": "function"
    },
    {
      "inputs": [
        {
          "internalType": "address",
          "name": "owner",
          "type": "address"
        },
        {
          "internalType": "address",
          "name": "operator",
          "type": "address"
        }
      ],
      "name": "isApprovedForAll",
      "outputs": [
        {
          "internalType": "bool",
          "name": "",
          "type": "bool"
        }
      ],
      "stateMutability": "view",
      "type": "function"
    },
    {
      "inputs": [],
      "name": "maxMintAmount",
      "outputs": [
        {
          "internalType": "uint256",
          "name": "",
          "type": "uint256"
        }
      ],
      "stateMutability": "view",
      "type": "function"
    },
    {
      "inputs": [],
      "name": "maxSupply",
      "outputs": [
        {
          "internalType": "uint256",
          "name": "",
          "type": "uint256"
        }
      ],
      "stateMutability": "view",
      "type": "function"
    },
    {
      "inputs": [],
      "name": "name",
      "outputs": [
        {
          "internalType": "string",
          "name": "",
          "type": "string"
        }
      ],
      "stateMutability": "view",
      "type": "function"
    },
    {
      "inputs": [],
      "name": "normalSerumURI",
      "outputs": [
        {
          "internalType": "string",
          "name": "",
          "type": "string"
        }
      ],
      "stateMutability": "view",
      "type": "function"
    },
    {
      "inputs": [],
      "name": "owner",
      "outputs": [
        {
          "internalType": "address",
          "name": "",
          "type": "address"
        }
      ],
      "stateMutability": "view",
      "type": "function"
    },
    {
      "inputs": [
        {
          "internalType": "uint256",
          "name": "tokenId",
          "type": "uint256"
        }
      ],
      "name": "ownerOf",
      "outputs": [
        {
          "internalType": "address",
          "name": "",
          "type": "address"
        }
      ],
      "stateMutability": "view",
      "type": "function"
    },
    {
      "inputs": [],
      "name": "pause",
      "outputs": [],
      "stateMutability": "nonpayable",
      "type": "function"
    },
    {
      "inputs": [],
      "name": "paused",
      "outputs": [
        {
          "internalType": "bool",
          "name": "",
          "type": "bool"
        }
      ],
      "stateMutability": "view",
      "type": "function"
    },
    {
      "inputs": [],
      "name": "presaleAmount",
      "outputs": [
        {
          "internalType": "uint256",
          "name": "",
          "type": "uint256"
        }
      ],
      "stateMutability": "view",
      "type": "function"
    },
    {
      "inputs": [],
      "name": "presaleCost",
      "outputs": [
        {
          "internalType": "uint256",
          "name": "",
          "type": "uint256"
        }
      ],
      "stateMutability": "view",
      "type": "function"
    },
    {
      "inputs": [
        {
          "internalType": "address",
          "name": "",
          "type": "address"
        }
      ],
      "name": "presaleWallets",
      "outputs": [
        {
          "internalType": "bool",
          "name": "",
          "type": "bool"
        }
      ],
      "stateMutability": "view",
      "type": "function"
    },
    {
      "inputs": [],
      "name": "proxiableUUID",
      "outputs": [
        {
          "internalType": "bytes32",
          "name": "",
          "type": "bytes32"
        }
      ],
      "stateMutability": "view",
      "type": "function"
    },
    {
      "inputs": [
        {
          "internalType": "address",
          "name": "_user",
          "type": "address"
        }
      ],
      "name": "removePresaleUser",
      "outputs": [],
      "stateMutability": "nonpayable",
      "type": "function"
    },
    {
      "inputs": [
        {
          "internalType": "address",
          "name": "_user",
          "type": "address"
        }
      ],
      "name": "removeWhitelistUser",
      "outputs": [],
      "stateMutability": "nonpayable",
      "type": "function"
    },
    {
      "inputs": [],
      "name": "renounceOwnership",
      "outputs": [],
      "stateMutability": "nonpayable",
      "type": "function"
    },
    {
      "inputs": [
        {
          "internalType": "address",
          "name": "_to",
          "type": "address"
        },
        {
          "internalType": "uint256",
          "name": "tokenId",
          "type": "uint256"
        }
      ],
      "name": "safeGigaMint",
      "outputs": [],
      "stateMutability": "payable",
      "type": "function"
    },
    {
      "inputs": [
        {
          "internalType": "address",
          "name": "_to",
          "type": "address"
        },
        {
          "internalType": "uint256",
          "name": "_mintAmount",
          "type": "uint256"
        }
      ],
      "name": "safeMint",
      "outputs": [],
      "stateMutability": "payable",
      "type": "function"
    },
    {
      "inputs": [
        {
          "internalType": "address",
          "name": "from",
          "type": "address"
        },
        {
          "internalType": "address",
          "name": "to",
          "type": "address"
        },
        {
          "internalType": "uint256",
          "name": "tokenId",
          "type": "uint256"
        }
      ],
      "name": "safeTransferFrom",
      "outputs": [],
      "stateMutability": "nonpayable",
      "type": "function"
    },
    {
      "inputs": [
        {
          "internalType": "address",
          "name": "from",
          "type": "address"
        },
        {
          "internalType": "address",
          "name": "to",
          "type": "address"
        },
        {
          "internalType": "uint256",
          "name": "tokenId",
          "type": "uint256"
        },
        {
          "internalType": "bytes",
          "name": "_data",
          "type": "bytes"
        }
      ],
      "name": "safeTransferFrom",
      "outputs": [],
      "stateMutability": "nonpayable",
      "type": "function"
    },
    {
      "inputs": [
        {
          "internalType": "address",
          "name": "operator",
          "type": "address"
        },
        {
          "internalType": "bool",
          "name": "approved",
          "type": "bool"
        }
      ],
      "name": "setApprovalForAll",
      "outputs": [],
      "stateMutability": "nonpayable",
      "type": "function"
    },
    {
      "inputs": [
        {
          "internalType": "uint256",
          "name": "_newCost",
          "type": "uint256"
        }
      ],
      "name": "setCost",
      "outputs": [],
      "stateMutability": "nonpayable",
      "type": "function"
    },
    {
      "inputs": [
        {
          "internalType": "uint256",
          "name": "_newGigaCost",
          "type": "uint256"
        }
      ],
      "name": "setGigaCost",
      "outputs": [],
      "stateMutability": "nonpayable",
      "type": "function"
    },
    {
      "inputs": [
        {
          "internalType": "uint256",
          "name": "_newCost",
          "type": "uint256"
        }
      ],
      "name": "setPresaleCost",
      "outputs": [],
      "stateMutability": "nonpayable",
      "type": "function"
    },
    {
      "inputs": [
        {
          "internalType": "bytes4",
          "name": "interfaceId",
          "type": "bytes4"
        }
      ],
      "name": "supportsInterface",
      "outputs": [
        {
          "internalType": "bool",
          "name": "",
          "type": "bool"
        }
      ],
      "stateMutability": "view",
      "type": "function"
    },
    {
      "inputs": [],
      "name": "symbol",
      "outputs": [
        {
          "internalType": "string",
          "name": "",
          "type": "string"
        }
      ],
      "stateMutability": "view",
      "type": "function"
    },
    {
      "inputs": [
        {
          "internalType": "uint256",
          "name": "index",
          "type": "uint256"
        }
      ],
      "name": "tokenByIndex",
      "outputs": [
        {
          "internalType": "uint256",
          "name": "",
          "type": "uint256"
        }
      ],
      "stateMutability": "view",
      "type": "function"
    },
    {
      "inputs": [
        {
          "internalType": "address",
          "name": "owner",
          "type": "address"
        },
        {
          "internalType": "uint256",
          "name": "index",
          "type": "uint256"
        }
      ],
      "name": "tokenOfOwnerByIndex",
      "outputs": [
        {
          "internalType": "uint256",
          "name": "",
          "type": "uint256"
        }
      ],
      "stateMutability": "view",
      "type": "function"
    },
    {
      "inputs": [
        {
          "internalType": "uint256",
          "name": "tokenId",
          "type": "uint256"
        }
      ],
      "name": "tokenURI",
      "outputs": [
        {
          "internalType": "string",
          "name": "",
          "type": "string"
        }
      ],
      "stateMutability": "view",
      "type": "function"
    },
    {
      "inputs": [],
      "name": "totalSupply",
      "outputs": [
        {
          "internalType": "uint256",
          "name": "",
          "type": "uint256"
        }
      ],
      "stateMutability": "view",
      "type": "function"
    },
    {
      "inputs": [
        {
          "internalType": "address",
          "name": "from",
          "type": "address"
        },
        {
          "internalType": "address",
          "name": "to",
          "type": "address"
        },
        {
          "internalType": "uint256",
          "name": "tokenId",
          "type": "uint256"
        }
      ],
      "name": "transferFrom",
      "outputs": [],
      "stateMutability": "nonpayable",
      "type": "function"
    },
    {
      "inputs": [
        {
          "internalType": "address",
          "name": "newOwner",
          "type": "address"
        }
      ],
      "name": "transferOwnership",
      "outputs": [],
      "stateMutability": "nonpayable",
      "type": "function"
    },
    {
      "inputs": [],
      "name": "unpause",
      "outputs": [],
      "stateMutability": "nonpayable",
      "type": "function"
    },
    {
      "inputs": [
        {
          "internalType": "address",
          "name": "_creatorAddress",
          "type": "address"
        }
      ],
      "name": "updateCreatorAdd",
      "outputs": [],
      "stateMutability": "nonpayable",
      "type": "function"
    },
    {
      "inputs": [
        {
          "internalType": "string",
          "name": "_gigaSerum",
          "type": "string"
        }
      ],
      "name": "updateGigaSerumURI",
      "outputs": [],
      "stateMutability": "nonpayable",
      "type": "function"
    },
    {
      "inputs": [
        {
          "internalType": "string",
          "name": "_normalSerum",
          "type": "string"
        }
      ],
      "name": "updateNormalSerumURI",
      "outputs": [],
      "stateMutability": "nonpayable",
      "type": "function"
    },
    {
      "inputs": [
        {
          "internalType": "uint256",
          "name": "tokenId",
          "type": "uint256"
        },
        {
          "internalType": "string",
          "name": "_uri",
          "type": "string"
        }
      ],
      "name": "updateTokenURI",
      "outputs": [],
      "stateMutability": "nonpayable",
      "type": "function"
    },
    {
      "inputs": [
        {
          "internalType": "address",
          "name": "newImplementation",
          "type": "address"
        }
      ],
      "name": "upgradeTo",
      "outputs": [],
      "stateMutability": "nonpayable",
      "type": "function"
    },
    {
      "inputs": [
        {
          "internalType": "address",
          "name": "newImplementation",
          "type": "address"
        },
        {
          "internalType": "bytes",
          "name": "data",
          "type": "bytes"
        }
      ],
      "name": "upgradeToAndCall",
      "outputs": [],
      "stateMutability": "payable",
      "type": "function"
    },
    {
      "inputs": [
        {
          "internalType": "address",
          "name": "_user",
          "type": "address"
        }
      ],
      "name": "whitelistUser",
      "outputs": [],
      "stateMutability": "nonpayable",
      "type": "function"
    },
    {
      "inputs": [
        {
          "internalType": "address",
          "name": "",
          "type": "address"
        }
      ],
      "name": "whitelisted",
      "outputs": [
        {
          "internalType": "bool",
          "name": "",
          "type": "bool"
        }
      ],
      "stateMutability": "view",
      "type": "function"
    },
    {
      "inputs": [],
      "name": "withdraw",
      "outputs": [],
      "stateMutability": "payable",
      "type": "function"
    },
    {
      "inputs": [],
      "name": "x",
      "outputs": [
        {
          "internalType": "uint256",
          "name": "",
          "type": "uint256"
        }
      ],
      "stateMutability": "view",
      "type": "function"
    }
  ],
  "bytecode": "0x60a06040523060601b60805234801561001757600080fd5b5060805160601c614a9d610052600039600081816111ff015281816112840152818161160b0152818161169001526118280152614a9d6000f3fe60806040526004361061042f5760003560e01c80635c975abb11610228578063b2f3e85e11610128578063e927fc5c116100bb578063f2fde38b1161008a578063fb7307301161006f578063fb73073014610c32578063fe4b84df14610c63578063fea5bcba14610c8357600080fd5b8063f2fde38b14610bf2578063fb08600a14610c1257600080fd5b8063e927fc5c14610b48578063e985e9c514610b69578063ed931e1714610bb2578063f130fc6814610bd257600080fd5b8063d437ebf9116100f7578063d437ebf914610acb578063d5abeb0114610ae0578063d91e36a414610af7578063d936547e14610b1757600080fd5b8063b2f3e85e14610a31578063b88d4fde14610a51578063c87b56dd14610a71578063cf7dfe5614610a9157600080fd5b80638da5cb5b116101bb5780639d4f01531161018a578063a1bdc18b1161016f578063a1bdc18b146109c3578063a22cb465146109fa578063b138d50014610a1a57600080fd5b80639d4f015314610990578063a1448194146109b057600080fd5b80638da5cb5b146109275780638fdcf94214610946578063955cb5571461096657806395d89b411461097b57600080fd5b80637289fe9f116101f75780637289fe9f146108d55780637a51c3cd146108ea5780638456cb59146108ff5780638ce963061461091457600080fd5b80635c975abb146108685780636352211e1461088057806370a08231146108a0578063715018a6146108c057600080fd5b80632f95ef431161033357806344a0d68a116102c65780634f6ccce71161029557806353a86b261161027a57806353a86b26146107f7578063546857c71461081757806358cf77fa1461083757600080fd5b80634f6ccce7146107c257806352d1902d146107e257600080fd5b806344a0d68a146107585780634a4c560d146107785780634d936d0e146107985780634f1ef286146107af57600080fd5b80633ccfd60b116103025780633ccfd60b146106fb5780633f4ba83a1461070357806342842e0e1461071857806342966c681461073857600080fd5b80632f95ef431461067357806330b2264e1461068a57806330cc7ae0146106bb5780633659cfe6146106db57600080fd5b806318160ddd116103c6578063239c70ae116103955780632800aa371161037a5780632800aa371461061c5780632a23d07d1461063c5780632f745c591461065357600080fd5b8063239c70ae146105e557806323b872dd146105fc57600080fd5b806318160ddd1461056457806318e97fd1146105795780631f6f90bd1461059957806321b6396a146105ae57600080fd5b8063081812fc11610402578063081812fc146104dc578063095ea7b3146105145780630c55699c1461053657806313faede61461054d57600080fd5b806301ffc9a714610434578063045ac2a21461046957806306fdde03146104895780630799ad36146104ab575b600080fd5b34801561044057600080fd5b5061045461044f3660046146ee565b610c98565b60405190151581526020015b60405180910390f35b34801561047557600080fd5b50610200545b604051908152602001610460565b34801561049557600080fd5b5061049e610ca9565b6040516104609190614853565b3480156104b757600080fd5b506104546104c6366004614759565b6000908152610201602052604090205460ff1690565b3480156104e857600080fd5b506104fc6104f7366004614759565b610d3b565b6040516001600160a01b039091168152602001610460565b34801561052057600080fd5b5061053461052f366004614621565b610dd5565b005b34801561054257600080fd5b5061047b6102065481565b34801561055957600080fd5b5061047b6101f95481565b34801561057057600080fd5b5060995461047b565b34801561058557600080fd5b50610534610594366004614771565b610f07565b3480156105a557600080fd5b5061049e610f5e565b3480156105ba57600080fd5b506104fc6105c9366004614759565b600090815261020260205260409020546001600160a01b031690565b3480156105f157600080fd5b5061047b6101fd5481565b34801561060857600080fd5b506105346106173660046144fa565b610fed565b34801561062857600080fd5b506105346106373660046144ae565b611075565b34801561064857600080fd5b5061047b6101fb5481565b34801561065f57600080fd5b5061047b61066e366004614621565b6110e1565b34801561067f57600080fd5b5061047b6101fa5481565b34801561069657600080fd5b506104546106a53660046144ae565b6102046020526000908152604090205460ff1681565b3480156106c757600080fd5b506105346106d63660046144ae565b611189565b3480156106e757600080fd5b506105346106f63660046144ae565b6111f4565b610534611370565b34801561070f57600080fd5b50610534611451565b34801561072457600080fd5b506105346107333660046144fa565b6114a4565b34801561074457600080fd5b50610534610753366004614759565b6114bf565b34801561076457600080fd5b50610534610773366004614759565b611543565b34801561078457600080fd5b506105346107933660046144ae565b611592565b3480156107a457600080fd5b5061047b6102005481565b6105346107bd3660046145d5565b611600565b3480156107ce57600080fd5b5061047b6107dd366004614759565b611769565b3480156107ee57600080fd5b5061047b61181b565b34801561080357600080fd5b50610534610812366004614726565b6118e0565b34801561082357600080fd5b5061053461083236600461464a565b61193d565b34801561084357600080fd5b506104546108523660046144ae565b6102056020526000908152604090205460ff1681565b34801561087457600080fd5b5060fb5460ff16610454565b34801561088c57600080fd5b506104fc61089b366004614759565b6119fb565b3480156108ac57600080fd5b5061047b6108bb3660046144ae565b611a86565b3480156108cc57600080fd5b50610534611b20565b3480156108e157600080fd5b5061049e611b73565b3480156108f657600080fd5b5061049e611b83565b34801561090b57600080fd5b50610534611b93565b610534610922366004614621565b611be4565b34801561093357600080fd5b5061012d546001600160a01b03166104fc565b34801561095257600080fd5b50610534610961366004614759565b611d4c565b34801561097257600080fd5b5061049e611d9b565b34801561098757600080fd5b5061049e611da9565b34801561099c57600080fd5b506105346109ab366004614726565b611db8565b6105346109be366004614621565b611e15565b3480156109cf57600080fd5b506104fc6109de366004614759565b610202602052600090815260409020546001600160a01b031681565b348015610a0657600080fd5b50610534610a1536600461459b565b612132565b348015610a2657600080fd5b5061047b6101fc5481565b348015610a3d57600080fd5b50610534610a4c3660046144ae565b61213d565b348015610a5d57600080fd5b50610534610a6c366004614535565b6121ab565b348015610a7d57600080fd5b5061049e610a8c366004614759565b612233565b348015610a9d57600080fd5b50610454610aac3660046144ae565b6001600160a01b03166000908152610204602052604090205460ff1690565b348015610ad757600080fd5b5061049e61223e565b348015610aec57600080fd5b5061047b6101f65481565b348015610b0357600080fd5b50610534610b12366004614771565b61224c565b348015610b2357600080fd5b50610454610b323660046144ae565b6102036020526000908152604090205460ff1681565b348015610b5457600080fd5b506101f7546104fc906001600160a01b031681565b348015610b7557600080fd5b50610454610b843660046144c8565b6001600160a01b039182166000908152606a6020908152604080832093909416825291909152205460ff1690565b348015610bbe57600080fd5b50610534610bcd3660046144ae565b61236d565b348015610bde57600080fd5b50610534610bed366004614771565b6123d8565b348015610bfe57600080fd5b50610534610c0d3660046144ae565b612428565b348015610c1e57600080fd5b50610534610c2d366004614759565b6124f6565b348015610c3e57600080fd5b50610454610c4d366004614759565b6102016020526000908152604090205460ff1681565b348015610c6f57600080fd5b50610534610c7e366004614759565b612545565b348015610c8f57600080fd5b5061049e612806565b6000610ca382612816565b92915050565b606060658054610cb8906148f4565b80601f0160208091040260200160405190810160405280929190818152602001828054610ce4906148f4565b8015610d315780601f10610d0657610100808354040283529160200191610d31565b820191906000526020600020905b815481529060010190602001808311610d1457829003601f168201915b5050505050905090565b6000818152606760205260408120546001600160a01b0316610db95760405162461bcd60e51b815260206004820152602c60248201527f4552433732313a20617070726f76656420717565727920666f72206e6f6e657860448201526b34b9ba32b73a103a37b5b2b760a11b60648201526084015b60405180910390fd5b506000908152606960205260409020546001600160a01b031690565b6000610de0826119fb565b9050806001600160a01b0316836001600160a01b03161415610e6a5760405162461bcd60e51b815260206004820152602160248201527f4552433732313a20617070726f76616c20746f2063757272656e74206f776e6560448201527f72000000000000000000000000000000000000000000000000000000000000006064820152608401610db0565b336001600160a01b0382161480610e865750610e868133610b84565b610ef85760405162461bcd60e51b815260206004820152603860248201527f4552433732313a20617070726f76652063616c6c6572206973206e6f74206f7760448201527f6e6572206e6f7220617070726f76656420666f7220616c6c00000000000000006064820152608401610db0565b610f028383612854565b505050565b61012d546001600160a01b03163314610f505760405162461bcd60e51b81526020600482018190526024820152600080516020614a218339815191526044820152606401610db0565b610f5a82826128c2565b5050565b6101f88054610f6c906148f4565b80601f0160208091040260200160405190810160405280929190818152602001828054610f98906148f4565b8015610fe55780601f10610fba57610100808354040283529160200191610fe5565b820191906000526020600020905b815481529060010190602001808311610fc857829003601f168201915b505050505081565b610ff8335b8261296b565b61106a5760405162461bcd60e51b815260206004820152603160248201527f4552433732313a207472616e736665722063616c6c6572206973206e6f74206f60448201527f776e6572206e6f7220617070726f7665640000000000000000000000000000006064820152608401610db0565b610f02838383612a62565b61012d546001600160a01b031633146110be5760405162461bcd60e51b81526020600482018190526024820152600080516020614a218339815191526044820152606401610db0565b6101f780546001600160a01b0319166001600160a01b0392909216919091179055565b60006110ec83611a86565b82106111605760405162461bcd60e51b815260206004820152602b60248201527f455243373231456e756d657261626c653a206f776e657220696e646578206f7560448201527f74206f6620626f756e64730000000000000000000000000000000000000000006064820152608401610db0565b506001600160a01b03919091166000908152609760209081526040808320938352929052205490565b61012d546001600160a01b031633146111d25760405162461bcd60e51b81526020600482018190526024820152600080516020614a218339815191526044820152606401610db0565b6001600160a01b0316600090815261020360205260409020805460ff19169055565b306001600160a01b037f00000000000000000000000000000000000000000000000000000000000000001614156112825760405162461bcd60e51b815260206004820152602c60248201527f46756e6374696f6e206d7573742062652063616c6c6564207468726f7567682060448201526b19195b1959d85d1958d85b1b60a21b6064820152608401610db0565b7f00000000000000000000000000000000000000000000000000000000000000006001600160a01b03166112dd7f360894a13ba1a3210667c828492db98dca3e2076cc3735a920a3ca505d382bbc546001600160a01b031690565b6001600160a01b0316146113485760405162461bcd60e51b815260206004820152602c60248201527f46756e6374696f6e206d7573742062652063616c6c6564207468726f7567682060448201526b6163746976652070726f787960a01b6064820152608401610db0565b61135181612c3a565b6040805160008082526020820190925261136d91839190612c83565b50565b61012d546001600160a01b031633146113b95760405162461bcd60e51b81526020600482018190526024820152600080516020614a218339815191526044820152606401610db0565b604051600090339047908381818185875af1925050503d80600081146113fb576040519150601f19603f3d011682016040523d82523d6000602084013e611400565b606091505b505090508061136d5760405162461bcd60e51b815260206004820152600f60248201527f4661696c75726520746f2073656e6400000000000000000000000000000000006044820152606401610db0565b61012d546001600160a01b0316331461149a5760405162461bcd60e51b81526020600482018190526024820152600080516020614a218339815191526044820152606401610db0565b6114a2612e32565b565b610f02838383604051806020016040528060008152506121ab565b6114c833610ff2565b61153a5760405162461bcd60e51b815260206004820152603060248201527f4552433732314275726e61626c653a2063616c6c6572206973206e6f74206f7760448201527f6e6572206e6f7220617070726f766564000000000000000000000000000000006064820152608401610db0565b61136d81612ece565b61012d546001600160a01b0316331461158c5760405162461bcd60e51b81526020600482018190526024820152600080516020614a218339815191526044820152606401610db0565b6101f955565b61012d546001600160a01b031633146115db5760405162461bcd60e51b81526020600482018190526024820152600080516020614a218339815191526044820152606401610db0565b6001600160a01b0316600090815261020360205260409020805460ff19166001179055565b306001600160a01b037f000000000000000000000000000000000000000000000000000000000000000016141561168e5760405162461bcd60e51b815260206004820152602c60248201527f46756e6374696f6e206d7573742062652063616c6c6564207468726f7567682060448201526b19195b1959d85d1958d85b1b60a21b6064820152608401610db0565b7f00000000000000000000000000000000000000000000000000000000000000006001600160a01b03166116e97f360894a13ba1a3210667c828492db98dca3e2076cc3735a920a3ca505d382bbc546001600160a01b031690565b6001600160a01b0316146117545760405162461bcd60e51b815260206004820152602c60248201527f46756e6374696f6e206d7573742062652063616c6c6564207468726f7567682060448201526b6163746976652070726f787960a01b6064820152608401610db0565b61175d82612c3a565b610f5a82826001612c83565b600061177460995490565b82106117e85760405162461bcd60e51b815260206004820152602c60248201527f455243373231456e756d657261626c653a20676c6f62616c20696e646578206f60448201527f7574206f6620626f756e647300000000000000000000000000000000000000006064820152608401610db0565b6099828154811061180957634e487b7160e01b600052603260045260246000fd5b90600052602060002001549050919050565b6000306001600160a01b037f000000000000000000000000000000000000000000000000000000000000000016146118bb5760405162461bcd60e51b815260206004820152603860248201527f555550535570677261646561626c653a206d757374206e6f742062652063616c60448201527f6c6564207468726f7567682064656c656761746563616c6c00000000000000006064820152608401610db0565b507f360894a13ba1a3210667c828492db98dca3e2076cc3735a920a3ca505d382bbc90565b61012d546001600160a01b031633146119295760405162461bcd60e51b81526020600482018190526024820152600080516020614a218339815191526044820152606401610db0565b8051610f5a906101ff906020840190614341565b61012d546001600160a01b031633146119865760405162461bcd60e51b81526020600482018190526024820152600080516020614a218339815191526044820152606401610db0565b60005b6064811015610f5a57600161020460008484606481106119b957634e487b7160e01b600052603260045260246000fd5b602090810291909101516001600160a01b03168252810191909152604001600020805460ff1916911515919091179055806119f38161492f565b915050611989565b6000818152606760205260408120546001600160a01b031680610ca35760405162461bcd60e51b815260206004820152602960248201527f4552433732313a206f776e657220717565727920666f72206e6f6e657869737460448201527f656e7420746f6b656e00000000000000000000000000000000000000000000006064820152608401610db0565b60006001600160a01b038216611b045760405162461bcd60e51b815260206004820152602a60248201527f4552433732313a2062616c616e636520717565727920666f7220746865207a6560448201527f726f2061646472657373000000000000000000000000000000000000000000006064820152608401610db0565b506001600160a01b031660009081526068602052604090205490565b61012d546001600160a01b03163314611b695760405162461bcd60e51b81526020600482018190526024820152600080516020614a218339815191526044820152606401610db0565b6114a26000612ed7565b60606101ff8054610cb8906148f4565b60606101f88054610cb8906148f4565b61012d546001600160a01b03163314611bdc5760405162461bcd60e51b81526020600482018190526024820152600080516020614a218339815191526044820152606401610db0565b6114a2612f2a565b6001811015611bf257600080fd5b600a811115611c0057600080fd5b6101fa54341015611c1057600080fd5b6000611c1c8383612fb2565b611cb1826101ff8054611c2e906148f4565b80601f0160208091040260200160405190810160405280929190818152602001828054611c5a906148f4565b8015611ca75780601f10611c7c57610100808354040283529160200191611ca7565b820191906000526020600020905b815481529060010190602001808311611c8a57829003601f168201915b50505050506128c2565b6127106101fa546101f4611cc59190614892565b611ccf919061487e565b9050610200546001611ce19190614866565b610200556101f7546040516000916001600160a01b03169083908381818185875af1925050503d8060008114611d33576040519150601f19603f3d011682016040523d82523d6000602084013e611d38565b606091505b5050905080611d4657600080fd5b50505050565b61012d546001600160a01b03163314611d955760405162461bcd60e51b81526020600482018190526024820152600080516020614a218339815191526044820152606401610db0565b6101fb55565b6101fe8054610f6c906148f4565b606060668054610cb8906148f4565b61012d546001600160a01b03163314611e015760405162461bcd60e51b81526020600482018190526024820152600080516020614a218339815191526044820152606401610db0565b8051610f5a906101fe906020840190614341565b6000611e2060995490565b905060008211611e2f57600080fd5b6101fd54821115611e3f57600080fd5b6101f654611e4d8383614866565b1115611e5857600080fd5b6000611e6d61012d546001600160a01b031690565b6001600160a01b0316336001600160a01b031614611f4d57336000908152610203602052604090205460ff161515600114611f4d57336000908152610204602052604090205460ff161515600114611f0857826101f954611ece9190614892565b341015611eda57600080fd5b612710836101f954611eec9190614892565b611ef79060fa614892565b611f01919061487e565b9050611f4d565b826101fb54611f179190614892565b341015611f2357600080fd5b612710836101fb54611f359190614892565b611f409060fa614892565b611f4a919061487e565b90505b61020054600a1461202b5760015b83811161202557611f9185610200548386600a611f789190614866565b611f829190614866565b611f8c91906148b1565b612fb2565b61020054611fc79082611fa586600a614866565b611faf9190614866565b611fb991906148b1565b6101fe8054611c2e906148f4565b60006102016000610200548487600a611fe09190614866565b611fea9190614866565b611ff491906148b1565b81526020810191909152604001600020805460ff19169115159190911790558061201d8161492f565b915050611f5b565b50612093565b60015b8381116120915761204385611f8c8386614866565b612050611fb98285614866565b6000610201816120608487614866565b81526020810191909152604001600020805460ff1916911515919091179055806120898161492f565b91505061202e565b505b6101f7546040516000916001600160a01b03169083908381818185875af1925050503d80600081146120e1576040519150601f19603f3d011682016040523d82523d6000602084013e6120e6565b606091505b50509050806120f457600080fd5b336000908152610204602052604090205460ff1615156001141561212b5733600090815261020460205260409020805460ff191690555b5050505050565b610f5a338383612fcc565b61012d546001600160a01b031633146121865760405162461bcd60e51b81526020600482018190526024820152600080516020614a218339815191526044820152606401610db0565b6001600160a01b0316600090815261020460205260409020805460ff19166001179055565b6121b5338361296b565b6122275760405162461bcd60e51b815260206004820152603160248201527f4552433732313a207472616e736665722063616c6c6572206973206e6f74206f60448201527f776e6572206e6f7220617070726f7665640000000000000000000000000000006064820152608401610db0565b611d468484848461309b565b6060610ca382613119565b6101ff8054610f6c906148f4565b600b821061229c5760405162461bcd60e51b815260206004820152601d60248201527f546f6b656e2049442068617320746f206265204769676120736572756d0000006044820152606401610db0565b6122a5826119fb565b6001600160a01b0316336001600160a01b03161461232b5760405162461bcd60e51b815260206004820152602260248201527f596f7520617265206e6f7420746865206f776e6572206f662074686520746f6b60448201527f656e0000000000000000000000000000000000000000000000000000000000006064820152608401610db0565b61233582826128c2565b50600090815261020160209081526040808320805460ff19166001179055610202909152902080546001600160a01b03191633179055565b61012d546001600160a01b031633146123b65760405162461bcd60e51b81526020600482018190526024820152600080516020614a218339815191526044820152606401610db0565b6001600160a01b0316600090815261020460205260409020805460ff19169055565b600a821161229c5760405162461bcd60e51b815260206004820152601f60248201527f546f6b656e2049442068617320746f206265206e6f726d616c20736572756d006044820152606401610db0565b61012d546001600160a01b031633146124715760405162461bcd60e51b81526020600482018190526024820152600080516020614a218339815191526044820152606401610db0565b6001600160a01b0381166124ed5760405162461bcd60e51b815260206004820152602660248201527f4f776e61626c653a206e6577206f776e657220697320746865207a65726f206160448201527f64647265737300000000000000000000000000000000000000000000000000006064820152608401610db0565b61136d81612ed7565b61012d546001600160a01b0316331461253f5760405162461bcd60e51b81526020600482018190526024820152600080516020614a218339815191526044820152606401610db0565b6101fa55565b600061255160016132a4565b90508015612569576000805461ff0019166101001790555b6101f55460ff16156125e35760405162461bcd60e51b815260206004820152602e60248201527f436f6e747261637420696e7374616e63652068617320616c726561647920626560448201527f656e20696e697469616c697a65640000000000000000000000000000000000006064820152608401610db0565b6101f5805460ff1916600117905560408051808201825260058082527f5853554d4f0000000000000000000000000000000000000000000000000000006020808401829052845180860190955291845290830152612640916133dd565b612648613452565b612650613452565b6126586134bd565b612660613530565b612668613452565b612670613452565b610206829055686c6b935b8bbd4000006101f955686194049f30f72000006101fb5569043c33c19375648000006101fa55610bb86101fc556127106101f6556113886101fd556101f780546001600160a01b03191673a359f9524a4986b5dc180fedfac9c0ed941b06151790556040805180820190915260088082527f4b6170617375736f0000000000000000000000000000000000000000000000006020909201918252612722916101f891614341565b506040518060600160405280603581526020016149ec603591398051612751916101fe91602090910190614341565b506040518060600160405280603581526020016149b7603591398051612780916101ff91602090910190614341565b5060006102005560015b61271081116127bc57600081815261020160205260409020805460ff19169055806127b48161492f565b91505061278a565b508015610f5a576000805461ff0019169055604051600181527f7f26b83ff96e1f2b6a682f133852f6798a09c465da95921460cefb38474024989060200160405180910390a15050565b60606101fe8054610cb8906148f4565b60006001600160e01b031982167f780e9d63000000000000000000000000000000000000000000000000000000001480610ca35750610ca3826135a3565b600081815260696020526040902080546001600160a01b0319166001600160a01b0384169081179091558190612889826119fb565b6001600160a01b03167f8c5be1e5ebec7d5bd14f71427d1e84f3dd0314c0f7b2291e5b200ac8c7c3b92560405160405180910390a45050565b6000828152606760205260409020546001600160a01b031661294c5760405162461bcd60e51b815260206004820152602e60248201527f45524337323155524953746f726167653a2055524920736574206f66206e6f6e60448201527f6578697374656e7420746f6b656e0000000000000000000000000000000000006064820152608401610db0565b600082815260c9602090815260409091208251610f0292840190614341565b6000818152606760205260408120546001600160a01b03166129e45760405162461bcd60e51b815260206004820152602c60248201527f4552433732313a206f70657261746f7220717565727920666f72206e6f6e657860448201526b34b9ba32b73a103a37b5b2b760a11b6064820152608401610db0565b60006129ef836119fb565b9050806001600160a01b0316846001600160a01b03161480612a3657506001600160a01b038082166000908152606a602090815260408083209388168352929052205460ff165b80612a5a5750836001600160a01b0316612a4f84610d3b565b6001600160a01b0316145b949350505050565b826001600160a01b0316612a75826119fb565b6001600160a01b031614612af15760405162461bcd60e51b815260206004820152602560248201527f4552433732313a207472616e736665722066726f6d20696e636f72726563742060448201527f6f776e65720000000000000000000000000000000000000000000000000000006064820152608401610db0565b6001600160a01b038216612b6c5760405162461bcd60e51b8152602060048201526024808201527f4552433732313a207472616e7366657220746f20746865207a65726f2061646460448201527f72657373000000000000000000000000000000000000000000000000000000006064820152608401610db0565b612b7783838361363e565b612b82600082612854565b6001600160a01b0383166000908152606860205260408120805460019290612bab9084906148b1565b90915550506001600160a01b0382166000908152606860205260408120805460019290612bd9908490614866565b909155505060008181526067602052604080822080546001600160a01b0319166001600160a01b0386811691821790925591518493918716917fddf252ad1be2c89b69c2b068fc378daa952ba7f163c4a11628f55a4df523b3ef91a4505050565b61012d546001600160a01b0316331461136d5760405162461bcd60e51b81526020600482018190526024820152600080516020614a218339815191526044820152606401610db0565b7f4910fdfa16fed3260ed0e7147f7cc6da11a60208b5b9406d12a635614ffd91435460ff1615612cb657610f028361369c565b826001600160a01b03166352d1902d6040518163ffffffff1660e01b815260040160206040518083038186803b158015612cef57600080fd5b505afa925050508015612d1f575060408051601f3d908101601f19168201909252612d1c918101906146d6565b60015b612d915760405162461bcd60e51b815260206004820152602e60248201527f45524331393637557067726164653a206e657720696d706c656d656e7461746960448201527f6f6e206973206e6f7420555550530000000000000000000000000000000000006064820152608401610db0565b7f360894a13ba1a3210667c828492db98dca3e2076cc3735a920a3ca505d382bbc8114612e265760405162461bcd60e51b815260206004820152602960248201527f45524331393637557067726164653a20756e737570706f727465642070726f7860448201527f6961626c655555494400000000000000000000000000000000000000000000006064820152608401610db0565b50610f0283838361375a565b60fb5460ff16612e845760405162461bcd60e51b815260206004820152601460248201527f5061757361626c653a206e6f74207061757365640000000000000000000000006044820152606401610db0565b60fb805460ff191690557f5db9ee0a495bf2e6ff9c91a7834c1ba4fdd244a5e8aa4e537bd38aeae4b073aa335b6040516001600160a01b03909116815260200160405180910390a1565b61136d8161377f565b61012d80546001600160a01b038381166001600160a01b0319831681179093556040519116919082907f8be0079c531659141344cd1fd0a4f28419497f9722a3daafe3b4186f6b6457e090600090a35050565b60fb5460ff1615612f7d5760405162461bcd60e51b815260206004820152601060248201527f5061757361626c653a20706175736564000000000000000000000000000000006044820152606401610db0565b60fb805460ff191660011790557f62e78cea01bee320cd4e420270b5ea74000d11b0c9f74754ebdbfc544b05a258612eb13390565b610f5a8282604051806020016040528060008152506137bf565b816001600160a01b0316836001600160a01b0316141561302e5760405162461bcd60e51b815260206004820152601960248201527f4552433732313a20617070726f766520746f2063616c6c6572000000000000006044820152606401610db0565b6001600160a01b038381166000818152606a6020908152604080832094871680845294825291829020805460ff191686151590811790915591519182527f17307eab39ab6107e8899845ad3d59bd9653f200f220920489ca2b5937696c31910160405180910390a3505050565b6130a6848484612a62565b6130b28484848461383d565b611d465760405162461bcd60e51b815260206004820152603260248201527f4552433732313a207472616e7366657220746f206e6f6e20455243373231526560448201527131b2b4bb32b91034b6b83632b6b2b73a32b960711b6064820152608401610db0565b6000818152606760205260409020546060906001600160a01b03166131a65760405162461bcd60e51b815260206004820152603160248201527f45524337323155524953746f726167653a2055524920717565727920666f722060448201527f6e6f6e6578697374656e7420746f6b656e0000000000000000000000000000006064820152608401610db0565b600082815260c96020526040812080546131bf906148f4565b80601f01602080910402602001604051908101604052809291908181526020018280546131eb906148f4565b80156132385780601f1061320d57610100808354040283529160200191613238565b820191906000526020600020905b81548152906001019060200180831161321b57829003601f168201915b50505050509050600061325660408051602081019091526000815290565b9050805160001415613269575092915050565b81511561329b5780826040516020016132839291906147e8565b60405160208183030381529060405292505050919050565b612a5a84613995565b60008054610100900460ff1615613341578160ff1660011480156132c75750303b155b6133395760405162461bcd60e51b815260206004820152602e60248201527f496e697469616c697a61626c653a20636f6e747261637420697320616c72656160448201527f647920696e697469616c697a65640000000000000000000000000000000000006064820152608401610db0565b506000919050565b60005460ff8084169116106133be5760405162461bcd60e51b815260206004820152602e60248201527f496e697469616c697a61626c653a20636f6e747261637420697320616c72656160448201527f647920696e697469616c697a65640000000000000000000000000000000000006064820152608401610db0565b506000805460ff191660ff92909216919091179055600190565b919050565b600054610100900460ff166134485760405162461bcd60e51b815260206004820152602b60248201527f496e697469616c697a61626c653a20636f6e7472616374206973206e6f74206960448201526a6e697469616c697a696e6760a81b6064820152608401610db0565b610f5a8282613a8b565b600054610100900460ff166114a25760405162461bcd60e51b815260206004820152602b60248201527f496e697469616c697a61626c653a20636f6e7472616374206973206e6f74206960448201526a6e697469616c697a696e6760a81b6064820152608401610db0565b600054610100900460ff166135285760405162461bcd60e51b815260206004820152602b60248201527f496e697469616c697a61626c653a20636f6e7472616374206973206e6f74206960448201526a6e697469616c697a696e6760a81b6064820152608401610db0565b6114a2613b1d565b600054610100900460ff1661359b5760405162461bcd60e51b815260206004820152602b60248201527f496e697469616c697a61626c653a20636f6e7472616374206973206e6f74206960448201526a6e697469616c697a696e6760a81b6064820152608401610db0565b6114a2613b94565b60006001600160e01b031982167f80ac58cd00000000000000000000000000000000000000000000000000000000148061360657506001600160e01b031982167f5b5e139f00000000000000000000000000000000000000000000000000000000145b80610ca357507f01ffc9a7000000000000000000000000000000000000000000000000000000006001600160e01b0319831614610ca3565b60fb5460ff16156136915760405162461bcd60e51b815260206004820152601060248201527f5061757361626c653a20706175736564000000000000000000000000000000006044820152606401610db0565b610f02838383613c08565b6001600160a01b0381163b6137195760405162461bcd60e51b815260206004820152602d60248201527f455243313936373a206e657720696d706c656d656e746174696f6e206973206e60448201527f6f74206120636f6e7472616374000000000000000000000000000000000000006064820152608401610db0565b7f360894a13ba1a3210667c828492db98dca3e2076cc3735a920a3ca505d382bbc80546001600160a01b0319166001600160a01b0392909216919091179055565b61376383613cc0565b6000825111806137705750805b15610f0257611d468383613d00565b61378881613e0b565b600081815260c96020526040902080546137a1906148f4565b15905061136d57600081815260c96020526040812061136d916143c5565b6137c98383613eb2565b6137d6600084848461383d565b610f025760405162461bcd60e51b815260206004820152603260248201527f4552433732313a207472616e7366657220746f206e6f6e20455243373231526560448201527131b2b4bb32b91034b6b83632b6b2b73a32b960711b6064820152608401610db0565b60006001600160a01b0384163b1561398a57604051630a85bd0160e11b81526001600160a01b0385169063150b7a0290613881903390899088908890600401614817565b602060405180830381600087803b15801561389b57600080fd5b505af19250505080156138cb575060408051601f3d908101601f191682019092526138c89181019061470a565b60015b613970573d8080156138f9576040519150601f19603f3d011682016040523d82523d6000602084013e6138fe565b606091505b5080516139685760405162461bcd60e51b815260206004820152603260248201527f4552433732313a207472616e7366657220746f206e6f6e20455243373231526560448201527131b2b4bb32b91034b6b83632b6b2b73a32b960711b6064820152608401610db0565b805181602001fd5b6001600160e01b031916630a85bd0160e11b149050612a5a565b506001949350505050565b6000818152606760205260409020546060906001600160a01b0316613a225760405162461bcd60e51b815260206004820152602f60248201527f4552433732314d657461646174613a2055524920717565727920666f72206e6f60448201527f6e6578697374656e7420746f6b656e00000000000000000000000000000000006064820152608401610db0565b6000613a3960408051602081019091526000815290565b90506000815111613a595760405180602001604052806000815250613a84565b80613a6384614000565b604051602001613a749291906147e8565b6040516020818303038152906040525b9392505050565b600054610100900460ff16613af65760405162461bcd60e51b815260206004820152602b60248201527f496e697469616c697a61626c653a20636f6e7472616374206973206e6f74206960448201526a6e697469616c697a696e6760a81b6064820152608401610db0565b8151613b09906065906020850190614341565b508051610f02906066906020840190614341565b600054610100900460ff16613b885760405162461bcd60e51b815260206004820152602b60248201527f496e697469616c697a61626c653a20636f6e7472616374206973206e6f74206960448201526a6e697469616c697a696e6760a81b6064820152608401610db0565b60fb805460ff19169055565b600054610100900460ff16613bff5760405162461bcd60e51b815260206004820152602b60248201527f496e697469616c697a61626c653a20636f6e7472616374206973206e6f74206960448201526a6e697469616c697a696e6760a81b6064820152608401610db0565b6114a233612ed7565b6001600160a01b038316613c6357613c5e81609980546000838152609a60205260408120829055600182018355919091527f72a152ddfb8e864297c917af52ea6c1c68aead0fee1a62673fcc7e0c94979d000155565b613c86565b816001600160a01b0316836001600160a01b031614613c8657613c86838261414e565b6001600160a01b038216613c9d57610f02816141eb565b826001600160a01b0316826001600160a01b031614610f0257610f0282826142c4565b613cc98161369c565b6040516001600160a01b038216907fbc7cd75a20ee27fd9adebab32041f755214dbc6bffa90cc0225b39da2e5c2d3b90600090a250565b60606001600160a01b0383163b613d7f5760405162461bcd60e51b815260206004820152602660248201527f416464726573733a2064656c65676174652063616c6c20746f206e6f6e2d636f60448201527f6e747261637400000000000000000000000000000000000000000000000000006064820152608401610db0565b600080846001600160a01b031684604051613d9a91906147cc565b600060405180830381855af49150503d8060008114613dd5576040519150601f19603f3d011682016040523d82523d6000602084013e613dda565b606091505b5091509150613e028282604051806060016040528060278152602001614a4160279139614308565b95945050505050565b6000613e16826119fb565b9050613e248160008461363e565b613e2f600083612854565b6001600160a01b0381166000908152606860205260408120805460019290613e589084906148b1565b909155505060008281526067602052604080822080546001600160a01b0319169055518391906001600160a01b038416907fddf252ad1be2c89b69c2b068fc378daa952ba7f163c4a11628f55a4df523b3ef908390a45050565b6001600160a01b038216613f085760405162461bcd60e51b815260206004820181905260248201527f4552433732313a206d696e7420746f20746865207a65726f20616464726573736044820152606401610db0565b6000818152606760205260409020546001600160a01b031615613f6d5760405162461bcd60e51b815260206004820152601c60248201527f4552433732313a20746f6b656e20616c7265616479206d696e746564000000006044820152606401610db0565b613f796000838361363e565b6001600160a01b0382166000908152606860205260408120805460019290613fa2908490614866565b909155505060008181526067602052604080822080546001600160a01b0319166001600160a01b03861690811790915590518392907fddf252ad1be2c89b69c2b068fc378daa952ba7f163c4a11628f55a4df523b3ef908290a45050565b60608161404057505060408051808201909152600181527f3000000000000000000000000000000000000000000000000000000000000000602082015290565b8160005b811561406a57806140548161492f565b91506140639050600a8361487e565b9150614044565b60008167ffffffffffffffff81111561409357634e487b7160e01b600052604160045260246000fd5b6040519080825280601f01601f1916602001820160405280156140bd576020820181803683370190505b5090505b8415612a5a576140d26001836148b1565b91506140df600a8661494a565b6140ea906030614866565b60f81b81838151811061410d57634e487b7160e01b600052603260045260246000fd5b60200101907effffffffffffffffffffffffffffffffffffffffffffffffffffffffffffff1916908160001a905350614147600a8661487e565b94506140c1565b6000600161415b84611a86565b61416591906148b1565b6000838152609860205260409020549091508082146141b8576001600160a01b03841660009081526097602090815260408083208584528252808320548484528184208190558352609890915290208190555b5060009182526098602090815260408084208490556001600160a01b039094168352609781528383209183525290812055565b6099546000906141fd906001906148b1565b6000838152609a60205260408120546099805493945090928490811061423357634e487b7160e01b600052603260045260246000fd5b90600052602060002001549050806099838154811061426257634e487b7160e01b600052603260045260246000fd5b6000918252602080832090910192909255828152609a909152604080822084905585825281205560998054806142a857634e487b7160e01b600052603160045260246000fd5b6001900381819060005260206000200160009055905550505050565b60006142cf83611a86565b6001600160a01b039093166000908152609760209081526040808320868452825280832085905593825260989052919091209190915550565b60608315614317575081613a84565b8251156143275782518084602001fd5b8160405162461bcd60e51b8152600401610db09190614853565b82805461434d906148f4565b90600052602060002090601f01602090048101928261436f57600085556143b5565b82601f1061438857805160ff19168380011785556143b5565b828001600101855582156143b5579182015b828111156143b557825182559160200191906001019061439a565b506143c19291506143fb565b5090565b5080546143d1906148f4565b6000825580601f106143e1575050565b601f01602090049060005260206000209081019061136d91905b5b808211156143c157600081556001016143fc565b80356001600160a01b03811681146133d857600080fd5b600082601f830112614437578081fd5b813567ffffffffffffffff808211156144525761445261498a565b604051601f8301601f19908116603f0116810190828211818310171561447a5761447a61498a565b81604052838152866020858801011115614492578485fd5b8360208701602083013792830160200193909352509392505050565b6000602082840312156144bf578081fd5b613a8482614410565b600080604083850312156144da578081fd5b6144e383614410565b91506144f160208401614410565b90509250929050565b60008060006060848603121561450e578081fd5b61451784614410565b925061452560208501614410565b9150604084013590509250925092565b6000806000806080858703121561454a578081fd5b61455385614410565b935061456160208601614410565b925060408501359150606085013567ffffffffffffffff811115614583578182fd5b61458f87828801614427565b91505092959194509250565b600080604083850312156145ad578182fd5b6145b683614410565b9150602083013580151581146145ca578182fd5b809150509250929050565b600080604083850312156145e7578182fd5b6145f083614410565b9150602083013567ffffffffffffffff81111561460b578182fd5b61461785828601614427565b9150509250929050565b60008060408385031215614633578182fd5b61463c83614410565b946020939093013593505050565b6000610c8080838503121561465d578182fd5b83601f84011261466b578182fd5b60405181810181811067ffffffffffffffff8211171561468d5761468d61498a565b60405280848381018710156146a0578485fd5b8493505b60648410156146cb576146b681614410565b825260019390930192602091820191016146a4565b509095945050505050565b6000602082840312156146e7578081fd5b5051919050565b6000602082840312156146ff578081fd5b8135613a84816149a0565b60006020828403121561471b578081fd5b8151613a84816149a0565b600060208284031215614737578081fd5b813567ffffffffffffffff81111561474d578182fd5b612a5a84828501614427565b60006020828403121561476a578081fd5b5035919050565b60008060408385031215614783578182fd5b82359150602083013567ffffffffffffffff81111561460b578182fd5b600081518084526147b88160208601602086016148c8565b601f01601f19169290920160200192915050565b600082516147de8184602087016148c8565b9190910192915050565b600083516147fa8184602088016148c8565b83519083019061480e8183602088016148c8565b01949350505050565b60006001600160a01b0380871683528086166020840152508360408301526080606083015261484960808301846147a0565b9695505050505050565b602081526000613a8460208301846147a0565b600082198211156148795761487961495e565b500190565b60008261488d5761488d614974565b500490565b60008160001904831182151516156148ac576148ac61495e565b500290565b6000828210156148c3576148c361495e565b500390565b60005b838110156148e35781810151838201526020016148cb565b83811115611d465750506000910152565b600181811c9082168061490857607f821691505b6020821081141561492957634e487b7160e01b600052602260045260246000fd5b50919050565b60006000198214156149435761494361495e565b5060010190565b60008261495957614959614974565b500690565b634e487b7160e01b600052601160045260246000fd5b634e487b7160e01b600052601260045260246000fd5b634e487b7160e01b600052604160045260246000fd5b6001600160e01b03198116811461136d57600080fdfe697066733a2f2f516d4e54534548476653664b6773617838384576364d6e4d6832395a6b7239344a416a464a6d655056435368776a697066733a2f2f516d635766335147456d636171316376373158776f483479514d6a78716575374b4177564d324a714a41727741614f776e61626c653a2063616c6c6572206973206e6f7420746865206f776e6572416464726573733a206c6f772d6c6576656c2064656c65676174652063616c6c206661696c6564a26469706673582212202527ed350b1fb17dae7b205334e288ed4c2a84e3dd665718e5c7dd812da491ec64736f6c63430008040033",
  "linkReferences": {},
  "deployedLinkReferences": {}
}